{
  "_format": "hh-sol-artifact-1",
  "contractName": "Web3RSVP",
  "sourceName": "contracts/Web3RSVP.sol",
  "abi": [
    {
      "anonymous": false,
      "inputs": [
        {
          "indexed": false,
          "internalType": "bytes32",
          "name": "eventID",
          "type": "bytes32"
        },
        {
          "indexed": false,
          "internalType": "address",
          "name": "attendeeAddress",
          "type": "address"
        }
      ],
      "name": "ConfirmedAttendee",
      "type": "event"
    },
    {
      "anonymous": false,
      "inputs": [
        {
          "indexed": false,
          "internalType": "bytes32",
          "name": "eventID",
          "type": "bytes32"
        }
      ],
      "name": "DepositsPaidOut",
      "type": "event"
    },
    {
      "anonymous": false,
      "inputs": [
        {
          "indexed": false,
          "internalType": "bytes32",
          "name": "eventID",
          "type": "bytes32"
        },
        {
          "indexed": false,
          "internalType": "address",
          "name": "creatorAddress",
          "type": "address"
        },
        {
          "indexed": false,
          "internalType": "uint256",
          "name": "eventTimestamp",
          "type": "uint256"
        },
        {
          "indexed": false,
          "internalType": "uint256",
          "name": "maxCapacity",
          "type": "uint256"
        },
        {
          "indexed": false,
          "internalType": "uint256",
          "name": "deposit",
          "type": "uint256"
        },
        {
          "indexed": false,
          "internalType": "uint256",
          "name": "ticketPrice",
          "type": "uint256"
        }
      ],
      "name": "NewEventCreated",
      "type": "event"
    },
    {
      "anonymous": false,
      "inputs": [
        {
          "indexed": false,
          "internalType": "bytes32",
          "name": "eventID",
          "type": "bytes32"
        },
        {
          "indexed": false,
          "internalType": "address",
          "name": "attendeeAddress",
          "type": "address"
        }
      ],
      "name": "NewRSVP",
      "type": "event"
    },
    {
      "inputs": [
        {
          "internalType": "bytes32",
          "name": "eventId",
          "type": "bytes32"
        },
        {
          "internalType": "address",
          "name": "attendee",
          "type": "address"
        }
      ],
      "name": "confirmAttendee",
      "outputs": [],
      "stateMutability": "nonpayable",
      "type": "function"
    },
    {
      "inputs": [
        {
          "internalType": "bytes32",
          "name": "eventId",
          "type": "bytes32"
        },
        {
          "internalType": "address[]",
          "name": "attendees",
          "type": "address[]"
        }
      ],
      "name": "confirmGroup",
      "outputs": [],
      "stateMutability": "nonpayable",
      "type": "function"
    },
    {
      "inputs": [
        {
          "internalType": "uint256",
          "name": "eventTimestamp",
          "type": "uint256"
        },
        {
          "internalType": "uint256",
          "name": "deposit",
          "type": "uint256"
        },
        {
          "internalType": "uint256",
          "name": "maxCapacity",
          "type": "uint256"
        },
        {
          "internalType": "uint256",
          "name": "ticketPrice",
          "type": "uint256"
        },
        {
          "internalType": "string",
          "name": "eventName",
          "type": "string"
        }
      ],
      "name": "createNewEvent",
      "outputs": [],
      "stateMutability": "nonpayable",
      "type": "function"
    },
    {
      "inputs": [
        {
          "internalType": "bytes32",
          "name": "eventId",
          "type": "bytes32"
        }
      ],
      "name": "createNewRSVP",
      "outputs": [],
      "stateMutability": "payable",
      "type": "function"
    },
    {
      "inputs": [],
      "name": "createevent",
      "outputs": [
        {
          "internalType": "bytes32",
          "name": "eventId",
          "type": "bytes32"
        },
        {
          "internalType": "string",
          "name": "eventName",
          "type": "string"
        },
        {
          "internalType": "address",
          "name": "eventOwner",
          "type": "address"
        },
        {
          "internalType": "uint256",
          "name": "eventTimestamp",
          "type": "uint256"
        },
        {
          "internalType": "uint256",
          "name": "deposit",
          "type": "uint256"
        },
        {
          "internalType": "uint256",
          "name": "ticketPrice",
          "type": "uint256"
        },
        {
          "internalType": "uint256",
          "name": "maxCapacity",
          "type": "uint256"
        },
        {
          "internalType": "bool",
          "name": "paidOut",
          "type": "bool"
        }
      ],
      "stateMutability": "view",
      "type": "function"
    },
    {
      "inputs": [
        {
          "internalType": "bytes32",
          "name": "",
          "type": "bytes32"
        }
      ],
      "name": "idToEvent",
      "outputs": [
        {
          "internalType": "bytes32",
          "name": "eventId",
          "type": "bytes32"
        },
        {
          "internalType": "string",
          "name": "eventName",
          "type": "string"
        },
        {
          "internalType": "address",
          "name": "eventOwner",
          "type": "address"
        },
        {
          "internalType": "uint256",
          "name": "eventTimestamp",
          "type": "uint256"
        },
        {
          "internalType": "uint256",
          "name": "deposit",
          "type": "uint256"
        },
        {
          "internalType": "uint256",
          "name": "ticketPrice",
          "type": "uint256"
        },
        {
          "internalType": "uint256",
          "name": "maxCapacity",
          "type": "uint256"
        },
        {
          "internalType": "bool",
          "name": "paidOut",
          "type": "bool"
        }
      ],
      "stateMutability": "view",
      "type": "function"
    },
    {
      "inputs": [
        {
          "internalType": "bytes32",
          "name": "eventId",
          "type": "bytes32"
        }
      ],
      "name": "withdrawMoney",
      "outputs": [],
      "stateMutability": "nonpayable",
      "type": "function"
    }
  ],
  "bytecode": "0x608060405234801561001057600080fd5b506122b6806100206000396000f3fe6080604052600436106100545760003560e01c806292098c146100595780630d2e01981461008257806317f0165a146100ab5780636dcdf2cd146100c757806379747571146100f0578063909ef02114610119575b600080fd5b34801561006557600080fd5b50610080600480360381019061007b919061176b565b61015c565b005b34801561008e57600080fd5b506100a960048036038101906100a49190611713565b610378565b005b6100c560048036038101906100c091906116ae565b6106d8565b005b3480156100d357600080fd5b506100ee60048036038101906100e991906116d7565b61096b565b005b3480156100fc57600080fd5b50610117600480360381019061011291906116ae565b610edc565b005b34801561012557600080fd5b50610140600480360381019061013b91906116ae565b61138e565b6040516101539796959493929190611ba4565b60405180910390f35b60003330878787604051602001610177959493929190611a82565b60405160208183030381529060405280519060200120905060608060405180610120016040528084815260200186868080601f016020809104026020016040519081016040528093929190818152602001838380828437600081840152601f19601f8201169050808301925050505050505081526020013373ffffffffffffffffffffffffffffffffffffffff16815260200189815260200188815260200187815260200183815260200182815260200160001515815250600080858152602001908152602001600020600082015181600001556020820151816001019080519060200190610267929190611485565b5060408201518160020160006101000a81548173ffffffffffffffffffffffffffffffffffffffff021916908373ffffffffffffffffffffffffffffffffffffffff160217905550606082015181600301556080820151816004015560a0820151816005015560c08201518160060190805190602001906102e992919061150b565b5060e082015181600701908051906020019061030692919061150b565b506101008201518160080160006101000a81548160ff0219169083151502179055509050507f2553138c3f9c9008f266dbdbe9fc64f5b71e098d06ef714a190a65a8b9fc6bf383338a898b8a8a6040516103669796959493929190611b3a565b60405180910390a15050505050505050565b600080600085815260200190815260200160002060405180610120016040529081600082015481526020016001820180546103b290611f46565b80601f01602080910402602001604051908101604052809291908181526020018280546103de90611f46565b801561042b5780601f106104005761010080835404028352916020019161042b565b820191906000526020600020905b81548152906001019060200180831161040e57829003601f168201915b505050505081526020016002820160009054906101000a900473ffffffffffffffffffffffffffffffffffffffff1673ffffffffffffffffffffffffffffffffffffffff1673ffffffffffffffffffffffffffffffffffffffff1681526020016003820154815260200160048201548152602001600582015481526020016006820180548060200260200160405190810160405280929190818152602001828054801561052d57602002820191906000526020600020905b8160009054906101000a900473ffffffffffffffffffffffffffffffffffffffff1673ffffffffffffffffffffffffffffffffffffffff16815260200190600101908083116104e3575b50505050508152602001600782018054806020026020016040519081016040528092919081815260200182805480156105bb57602002820191906000526020600020905b8160009054906101000a900473ffffffffffffffffffffffffffffffffffffffff1673ffffffffffffffffffffffffffffffffffffffff1681526020019060010190808311610571575b505050505081526020016008820160009054906101000a900460ff1615151515815250509050806040015173ffffffffffffffffffffffffffffffffffffffff163373ffffffffffffffffffffffffffffffffffffffff1614610653576040517f08c379a000000000000000000000000000000000000000000000000000000000815260040161064a90611d5a565b60405180910390fd5b60005b838390508160ff1610156106d1576106be8585858460ff168181106106a4577f4e487b7100000000000000000000000000000000000000000000000000000000600052603260045260246000fd5b90506020020160208101906106b99190611685565b61096b565b80806106c990611f78565b915050610656565b5050505050565b6000806000838152602001908152602001600020905080600401543414610734576040517f08c379a000000000000000000000000000000000000000000000000000000000815260040161072b90611cda565b60405180910390fd5b806003015442111561077b576040517f08c379a000000000000000000000000000000000000000000000000000000000815260040161077290611c7a565b60405180910390fd5b80600501548160060180549050106107c8576040517f08c379a00000000000000000000000000000000000000000000000000000000081526004016107bf90611cba565b60405180910390fd5b60005b81600601805490508160ff1610156108c8573373ffffffffffffffffffffffffffffffffffffffff16826006018260ff1681548110610833577f4e487b7100000000000000000000000000000000000000000000000000000000600052603260045260246000fd5b9060005260206000200160009054906101000a900473ffffffffffffffffffffffffffffffffffffffff1673ffffffffffffffffffffffffffffffffffffffff1614156108b5576040517f08c379a00000000000000000000000000000000000000000000000000000000081526004016108ac90611c9a565b60405180910390fd5b80806108c090611f78565b9150506107cb565b5080600601339080600181540180825580915050600190039060005260206000200160009091909190916101000a81548173ffffffffffffffffffffffffffffffffffffffff021916908373ffffffffffffffffffffffffffffffffffffffff1602179055507fb79f4240bbdd272d98e02a5db7f0cf156e5fc000961c517670a26eeeec63ed90823360405161095f929190611b11565b60405180910390a15050565b600080600084815260200190815260200160002090508060020160009054906101000a900473ffffffffffffffffffffffffffffffffffffffff1673ffffffffffffffffffffffffffffffffffffffff163373ffffffffffffffffffffffffffffffffffffffff1614610a13576040517f08c379a0000000000000000000000000000000000000000000000000000000008152600401610a0a90611d5a565b60405180910390fd5b600080600090505b82600601805490508160ff161015610b4a578373ffffffffffffffffffffffffffffffffffffffff16836006018260ff1681548110610a83577f4e487b7100000000000000000000000000000000000000000000000000000000600052603260045260246000fd5b9060005260206000200160009054906101000a900473ffffffffffffffffffffffffffffffffffffffff1673ffffffffffffffffffffffffffffffffffffffff161415610b3757826006018160ff1681548110610b09577f4e487b7100000000000000000000000000000000000000000000000000000000600052603260045260246000fd5b9060005260206000200160009054906101000a900473ffffffffffffffffffffffffffffffffffffffff1691505b8080610b4290611f78565b915050610a1b565b508273ffffffffffffffffffffffffffffffffffffffff168173ffffffffffffffffffffffffffffffffffffffff1614610bb9576040517f08c379a0000000000000000000000000000000000000000000000000000000008152600401610bb090611d1a565b60405180910390fd5b60005b82600701805490508160ff161015610cb9578373ffffffffffffffffffffffffffffffffffffffff16836007018260ff1681548110610c24577f4e487b7100000000000000000000000000000000000000000000000000000000600052603260045260246000fd5b9060005260206000200160009054906101000a900473ffffffffffffffffffffffffffffffffffffffff1673ffffffffffffffffffffffffffffffffffffffff161415610ca6576040517f08c379a0000000000000000000000000000000000000000000000000000000008152600401610c9d90611c1a565b60405180910390fd5b8080610cb190611f78565b915050610bbc565b50600015158260080160009054906101000a900460ff16151514610d12576040517f08c379a0000000000000000000000000000000000000000000000000000000008152600401610d0990611c3a565b60405180910390fd5b81600701839080600181540180825580915050600190039060005260206000200160009091909190916101000a81548173ffffffffffffffffffffffffffffffffffffffff021916908373ffffffffffffffffffffffffffffffffffffffff16021790555060008373ffffffffffffffffffffffffffffffffffffffff168360040154604051610da190611ae1565b60006040518083038185875af1925050503d8060008114610dde576040519150601f19603f3d011682016040523d82523d6000602084013e610de3565b606091505b5050905080610e5c5782600701805480610e26577f4e487b7100000000000000000000000000000000000000000000000000000000600052603160045260246000fd5b6001900381819060005260206000200160006101000a81549073ffffffffffffffffffffffffffffffffffffffff021916905590555b80610e9c576040517f08c379a0000000000000000000000000000000000000000000000000000000008152600401610e9390611c5a565b60405180910390fd5b7ff8d1583a733d83bdd3ef5464129d0a95a36d62b382d31c6d0467a61f4264381b8585604051610ecd929190611b11565b60405180910390a15050505050565b60008060008381526020019081526020016000206040518061012001604052908160008201548152602001600182018054610f1690611f46565b80601f0160208091040260200160405190810160405280929190818152602001828054610f4290611f46565b8015610f8f5780601f10610f6457610100808354040283529160200191610f8f565b820191906000526020600020905b815481529060010190602001808311610f7257829003601f168201915b505050505081526020016002820160009054906101000a900473ffffffffffffffffffffffffffffffffffffffff1673ffffffffffffffffffffffffffffffffffffffff1673ffffffffffffffffffffffffffffffffffffffff1681526020016003820154815260200160048201548152602001600582015481526020016006820180548060200260200160405190810160405280929190818152602001828054801561109157602002820191906000526020600020905b8160009054906101000a900473ffffffffffffffffffffffffffffffffffffffff1673ffffffffffffffffffffffffffffffffffffffff1681526020019060010190808311611047575b505050505081526020016007820180548060200260200160405190810160405280929190818152602001828054801561111f57602002820191906000526020600020905b8160009054906101000a900473ffffffffffffffffffffffffffffffffffffffff1673ffffffffffffffffffffffffffffffffffffffff16815260200190600101908083116110d5575b505050505081526020016008820160009054906101000a900460ff16151515158152505090508061010001511561118b576040517f08c379a000000000000000000000000000000000000000000000000000000000815260040161118290611cfa565b60405180910390fd5b62093a80816060015161119e9190611dc1565b4210156111e0576040517f08c379a00000000000000000000000000000000000000000000000000000000081526004016111d790611d7a565b60405180910390fd5b806040015173ffffffffffffffffffffffffffffffffffffffff163373ffffffffffffffffffffffffffffffffffffffff1614611252576040517f08c379a000000000000000000000000000000000000000000000000000000000815260040161124990611d3a565b60405180910390fd5b60008160e00151518260c001515161126a9190611e71565b9050600082608001518261127e9190611e17565b905060018361010001901515908115158152505060003373ffffffffffffffffffffffffffffffffffffffff16826040516112b890611ae1565b60006040518083038185875af1925050503d80600081146112f5576040519150601f19603f3d011682016040523d82523d6000602084013e6112fa565b606091505b5050905080611310576000151584610100015150505b80611350576040517f08c379a000000000000000000000000000000000000000000000000000000000815260040161134790611c5a565b60405180910390fd5b7f393073ea1365f611c3d2f240c992960d2b99dc81715555d3fc40fc55ba80af9c8560405161137f9190611af6565b60405180910390a15050505050565b60006020528060005260406000206000915090508060000154908060010180546113b790611f46565b80601f01602080910402602001604051908101604052809291908181526020018280546113e390611f46565b80156114305780601f1061140557610100808354040283529160200191611430565b820191906000526020600020905b81548152906001019060200180831161141357829003601f168201915b5050505050908060020160009054906101000a900473ffffffffffffffffffffffffffffffffffffffff16908060030154908060040154908060050154908060080160009054906101000a900460ff16905087565b82805461149190611f46565b90600052602060002090601f0160209004810192826114b357600085556114fa565b82601f106114cc57805160ff19168380011785556114fa565b828001600101855582156114fa579182015b828111156114f95782518255916020019190600101906114de565b5b5090506115079190611595565b5090565b828054828255906000526020600020908101928215611584579160200282015b828111156115835782518260006101000a81548173ffffffffffffffffffffffffffffffffffffffff021916908373ffffffffffffffffffffffffffffffffffffffff1602179055509160200191906001019061152b565b5b5090506115919190611595565b5090565b5b808211156115ae576000816000905550600101611596565b5090565b6000813590506115c18161223b565b92915050565b60008083601f8401126115d957600080fd5b8235905067ffffffffffffffff8111156115f257600080fd5b60208301915083602082028301111561160a57600080fd5b9250929050565b60008135905061162081612252565b92915050565b60008083601f84011261163857600080fd5b8235905067ffffffffffffffff81111561165157600080fd5b60208301915083600182028301111561166957600080fd5b9250929050565b60008135905061167f81612269565b92915050565b60006020828403121561169757600080fd5b60006116a5848285016115b2565b91505092915050565b6000602082840312156116c057600080fd5b60006116ce84828501611611565b91505092915050565b600080604083850312156116ea57600080fd5b60006116f885828601611611565b9250506020611709858286016115b2565b9150509250929050565b60008060006040848603121561172857600080fd5b600061173686828701611611565b935050602084013567ffffffffffffffff81111561175357600080fd5b61175f868287016115c7565b92509250509250925092565b60008060008060006080868803121561178357600080fd5b600061179188828901611670565b95505060206117a288828901611670565b94505060406117b388828901611670565b935050606086013567ffffffffffffffff8111156117d057600080fd5b6117dc88828901611626565b92509250509295509295909350565b6117f481611ea5565b82525050565b61180b61180682611ea5565b611fa2565b82525050565b61181a81611eb7565b82525050565b61182981611ec3565b82525050565b600061183b8385611db0565b9350611848838584611f04565b6118518361202e565b840190509392505050565b600061186782611d9a565b6118718185611db0565b9350611881818560208601611f13565b61188a8161202e565b840191505092915050565b60006118a2600f83611db0565b91506118ad8261204c565b602082019050919050565b60006118c5601083611db0565b91506118d082612075565b602082019050919050565b60006118e8601483611db0565b91506118f38261209e565b602082019050919050565b600061190b601083611db0565b9150611916826120c7565b602082019050919050565b600061192e601183611db0565b9150611939826120f0565b602082019050919050565b6000611951601f83611db0565b915061195c82612119565b602082019050919050565b6000611974600a83611db0565b915061197f82612142565b602082019050919050565b6000611997600c83611db0565b91506119a28261216b565b602082019050919050565b60006119ba601283611db0565b91506119c582612194565b602082019050919050565b60006119dd600083611da5565b91506119e8826121bd565b600082019050919050565b6000611a00601383611db0565b9150611a0b826121c0565b602082019050919050565b6000611a23600e83611db0565b9150611a2e826121e9565b602082019050919050565b6000611a46600983611db0565b9150611a5182612212565b602082019050919050565b611a6581611eed565b82525050565b611a7c611a7782611eed565b611fc6565b82525050565b6000611a8e82886117fa565b601482019150611a9e82876117fa565b601482019150611aae8286611a6b565b602082019150611abe8285611a6b565b602082019150611ace8284611a6b565b6020820191508190509695505050505050565b6000611aec826119d0565b9150819050919050565b6000602082019050611b0b6000830184611820565b92915050565b6000604082019050611b266000830185611820565b611b3360208301846117eb565b9392505050565b600060c082019050611b4f600083018a611820565b611b5c60208301896117eb565b611b696040830188611a5c565b611b766060830187611a5c565b611b836080830186611a5c565b81810360a0830152611b9681848661182f565b905098975050505050505050565b600060e082019050611bb9600083018a611820565b8181036020830152611bcb818961185c565b9050611bda60408301886117eb565b611be76060830187611a5c565b611bf46080830186611a5c565b611c0160a0830185611a5c565b611c0e60c0830184611811565b98975050505050505050565b60006020820190508181036000830152611c3381611895565b9050919050565b60006020820190508181036000830152611c53816118b8565b9050919050565b60006020820190508181036000830152611c73816118db565b9050919050565b60006020820190508181036000830152611c93816118fe565b9050919050565b60006020820190508181036000830152611cb381611921565b9050919050565b60006020820190508181036000830152611cd381611944565b9050919050565b60006020820190508181036000830152611cf381611967565b9050919050565b60006020820190508181036000830152611d138161198a565b9050919050565b60006020820190508181036000830152611d33816119ad565b9050919050565b60006020820190508181036000830152611d53816119f3565b9050919050565b60006020820190508181036000830152611d7381611a16565b9050919050565b60006020820190508181036000830152611d9381611a39565b9050919050565b600081519050919050565b600081905092915050565b600082825260208201905092915050565b6000611dcc82611eed565b9150611dd783611eed565b9250827fffffffffffffffffffffffffffffffffffffffffffffffffffffffffffffffff03821115611e0c57611e0b611fd0565b5b828201905092915050565b6000611e2282611eed565b9150611e2d83611eed565b9250817fffffffffffffffffffffffffffffffffffffffffffffffffffffffffffffffff0483118215151615611e6657611e65611fd0565b5b828202905092915050565b6000611e7c82611eed565b9150611e8783611eed565b925082821015611e9a57611e99611fd0565b5b828203905092915050565b6000611eb082611ecd565b9050919050565b60008115159050919050565b6000819050919050565b600073ffffffffffffffffffffffffffffffffffffffff82169050919050565b6000819050919050565b600060ff82169050919050565b82818337600083830152505050565b60005b83811015611f31578082015181840152602081019050611f16565b83811115611f40576000848401525b50505050565b60006002820490506001821680611f5e57607f821691505b60208210811415611f7257611f71611fff565b5b50919050565b6000611f8382611ef7565b915060ff821415611f9757611f96611fd0565b5b600182019050919050565b6000611fad82611fb4565b9050919050565b6000611fbf8261203f565b9050919050565b6000819050919050565b7f4e487b7100000000000000000000000000000000000000000000000000000000600052601160045260246000fd5b7f4e487b7100000000000000000000000000000000000000000000000000000000600052602260045260246000fd5b6000601f19601f8301169050919050565b60008160601b9050919050565b7f414c524541445920434c41494d45440000000000000000000000000000000000600082015250565b7f414c52454144592050414944204f555400000000000000000000000000000000600082015250565b7f4661696c656420746f2073656e64204574686572000000000000000000000000600082015250565b7f414c52454144592048415050454e454400000000000000000000000000000000600082015250565b7f414c524541445920434f4e4649524d4544000000000000000000000000000000600082015250565b7f54686973206576656e7420686173207265616368656420636170616369747900600082015250565b7f4e4f5420454e4f55474800000000000000000000000000000000000000000000600082015250565b7f414c524541445920504149440000000000000000000000000000000000000000600082015250565b7f4e4f205253565020544f20434f4e4649524d0000000000000000000000000000600082015250565b50565b7f4d555354204245204556454e54204f574e455200000000000000000000000000600082015250565b7f4e4f5420415554484f52495a4544000000000000000000000000000000000000600082015250565b7f544f4f204541524c590000000000000000000000000000000000000000000000600082015250565b61224481611ea5565b811461224f57600080fd5b50565b61225b81611ec3565b811461226657600080fd5b50565b61227281611eed565b811461227d57600080fd5b5056fea26469706673582212204b18e7325a81524de0c03e2dc69b9836249fec9c5c2ef19bf62f60266ce0270564736f6c63430008040033",
  "linkReferences": {},
  "deployedLinkReferences": {}
}