{
  "_format": "hh-sol-artifact-1",
  "contractName": "Web3RSVP",
  "sourceName": "contracts/Web3RSVP.sol",
  "abi": [
    {
      "anonymous": false,
      "inputs": [
        {
          "indexed": false,
          "internalType": "bytes32",
          "name": "eventID",
          "type": "bytes32"
        },
        {
          "indexed": false,
          "internalType": "address",
          "name": "attendeeAddress",
          "type": "address"
        }
      ],
      "name": "ConfirmedAttendee",
      "type": "event"
    },
    {
      "anonymous": false,
      "inputs": [
        {
          "indexed": false,
          "internalType": "bytes32",
          "name": "eventID",
          "type": "bytes32"
        }
      ],
      "name": "DepositsPaidOut",
      "type": "event"
    },
    {
      "anonymous": false,
      "inputs": [
        {
          "indexed": false,
          "internalType": "bytes32",
          "name": "eventID",
          "type": "bytes32"
        },
        {
          "indexed": false,
          "internalType": "address",
          "name": "creatorAddress",
          "type": "address"
        },
        {
          "indexed": false,
          "internalType": "uint256",
          "name": "eventTimestamp",
          "type": "uint256"
        },
        {
          "indexed": false,
          "internalType": "uint256",
          "name": "maxCapacity",
          "type": "uint256"
        },
        {
          "indexed": false,
          "internalType": "uint256",
          "name": "deposit",
          "type": "uint256"
        },
        {
          "indexed": false,
          "internalType": "uint256",
          "name": "ticketPrice",
          "type": "uint256"
        }
      ],
      "name": "NewEventCreated",
      "type": "event"
    },
    {
      "anonymous": false,
      "inputs": [
        {
          "indexed": false,
          "internalType": "bytes32",
          "name": "eventID",
          "type": "bytes32"
        },
        {
          "indexed": false,
          "internalType": "address",
          "name": "attendeeAddress",
          "type": "address"
        }
      ],
      "name": "NewRSVP",
      "type": "event"
    },
    {
      "inputs": [
        {
          "internalType": "bytes32",
          "name": "eventId",
          "type": "bytes32"
        },
        {
          "internalType": "address",
          "name": "attendee",
          "type": "address"
        }
      ],
      "name": "confirmAttendee",
      "outputs": [],
      "stateMutability": "nonpayable",
      "type": "function"
    },
    {
      "inputs": [
        {
          "internalType": "bytes32",
          "name": "eventId",
          "type": "bytes32"
        },
        {
          "internalType": "address[]",
          "name": "attendees",
          "type": "address[]"
        }
      ],
      "name": "confirmGroup",
      "outputs": [],
      "stateMutability": "nonpayable",
      "type": "function"
    },
    {
      "inputs": [
        {
          "internalType": "uint256",
          "name": "eventTimestamp",
          "type": "uint256"
        },
        {
          "internalType": "uint256",
          "name": "deposit",
          "type": "uint256"
        },
        {
          "internalType": "uint256",
          "name": "maxCapacity",
          "type": "uint256"
        },
        {
          "internalType": "uint256",
          "name": "ticketPrice",
          "type": "uint256"
        },
        {
          "internalType": "string",
          "name": "eventName",
          "type": "string"
        }
      ],
      "name": "createNewEvent",
      "outputs": [],
      "stateMutability": "nonpayable",
      "type": "function"
    },
    {
      "inputs": [
        {
          "internalType": "bytes32",
          "name": "eventId",
          "type": "bytes32"
        }
      ],
      "name": "createNewRSVP",
      "outputs": [],
      "stateMutability": "payable",
      "type": "function"
    },
    {
      "inputs": [],
      "name": "createevent",
      "outputs": [
        {
          "internalType": "bytes32",
          "name": "eventId",
          "type": "bytes32"
        },
        {
          "internalType": "string",
          "name": "eventName",
          "type": "string"
        },
        {
          "internalType": "address",
          "name": "eventOwner",
          "type": "address"
        },
        {
          "internalType": "uint256",
          "name": "eventTimestamp",
          "type": "uint256"
        },
        {
          "internalType": "uint256",
          "name": "deposit",
          "type": "uint256"
        },
        {
          "internalType": "uint256",
          "name": "ticketPrice",
          "type": "uint256"
        },
        {
          "internalType": "uint256",
          "name": "maxCapacity",
          "type": "uint256"
        },
        {
          "internalType": "bool",
          "name": "paidOut",
          "type": "bool"
        }
      ],
      "stateMutability": "view",
      "type": "function"
    },
    {
      "inputs": [
        {
          "internalType": "bytes32",
          "name": "",
          "type": "bytes32"
        }
      ],
      "name": "idToEvent",
      "outputs": [
        {
          "internalType": "bytes32",
          "name": "eventId",
          "type": "bytes32"
        },
        {
          "internalType": "string",
          "name": "eventName",
          "type": "string"
        },
        {
          "internalType": "address",
          "name": "eventOwner",
          "type": "address"
        },
        {
          "internalType": "uint256",
          "name": "eventTimestamp",
          "type": "uint256"
        },
        {
          "internalType": "uint256",
          "name": "deposit",
          "type": "uint256"
        },
        {
          "internalType": "uint256",
          "name": "ticketPrice",
          "type": "uint256"
        },
        {
          "internalType": "uint256",
          "name": "maxCapacity",
          "type": "uint256"
        },
        {
          "internalType": "bool",
          "name": "paidOut",
          "type": "bool"
        }
      ],
      "stateMutability": "view",
      "type": "function"
    },
    {
      "inputs": [
        {
          "internalType": "bytes32",
          "name": "eventId",
          "type": "bytes32"
        }
      ],
      "name": "withdrawMoney",
      "outputs": [],
      "stateMutability": "nonpayable",
      "type": "function"
    }
  ],
  "bytecode": "0x608060405234801561001057600080fd5b5061223c806100206000396000f3fe6080604052600436106100705760003560e01c80636dcdf2cd1161004e5780636dcdf2cd146100e3578063909ef0211461010c578063affb175514610150578063d90974af1461018257610070565b806306a974df146100755780630d2e01981461009e57806317f0165a146100c7575b600080fd5b34801561008157600080fd5b5061009c600480360381019061009791906116c9565b6101ab565b005b3480156100aa57600080fd5b506100c560048036038101906100c0919061172e565b610651565b005b6100e160048036038101906100dc91906116c9565b6109bc565b005b3480156100ef57600080fd5b5061010a600480360381019061010591906116f2565b610c5f565b005b34801561011857600080fd5b50610133600480360381019061012e91906116c9565b6110b0565b604051610147989796959493929190611b40565b60405180910390f35b34801561015c57600080fd5b506101656111ad565b604051610179989796959493929190611b40565b60405180910390f35b34801561018e57600080fd5b506101a960048036038101906101a49190611786565b611298565b005b6000600b600083815260200190815260200160002060405180610140016040529081600082015481526020016001820180546101e690611ee7565b80601f016020809104026020016040519081016040528092919081815260200182805461021290611ee7565b801561025f5780601f106102345761010080835404028352916020019161025f565b820191906000526020600020905b81548152906001019060200180831161024257829003601f168201915b505050505081526020016002820160009054906101000a900473ffffffffffffffffffffffffffffffffffffffff1673ffffffffffffffffffffffffffffffffffffffff1673ffffffffffffffffffffffffffffffffffffffff168152602001600382015481526020016004820154815260200160058201548152602001600682015481526020016007820180548060200260200160405190810160405280929190818152602001828054801561036b57602002820191906000526020600020905b8160009054906101000a900473ffffffffffffffffffffffffffffffffffffffff1673ffffffffffffffffffffffffffffffffffffffff1681526020019060010190808311610321575b50505050508152602001600882018054806020026020016040519081016040528092919081815260200182805480156103f957602002820191906000526020600020905b8160009054906101000a900473ffffffffffffffffffffffffffffffffffffffff1673ffffffffffffffffffffffffffffffffffffffff16815260200190600101908083116103af575b505050505081526020016009820160009054906101000a900460ff161515151581525050905080610120015115610465576040517f08c379a000000000000000000000000000000000000000000000000000000000815260040161045c90611c45565b60405180910390fd5b62093a8081606001516104789190611d62565b4210156104ba576040517f08c379a00000000000000000000000000000000000000000000000000000000081526004016104b190611cc5565b60405180910390fd5b806040015173ffffffffffffffffffffffffffffffffffffffff163373ffffffffffffffffffffffffffffffffffffffff161461052c576040517f08c379a000000000000000000000000000000000000000000000000000000000815260040161052390611c85565b60405180910390fd5b6000816101000151518260e00151516105459190611e12565b905060008260800151826105599190611db8565b905060008360a001518460e00151516105729190611db8565b905080826105809190611d62565b915060018461012001901515908115158152505060003373ffffffffffffffffffffffffffffffffffffffff16836040516105ba90611a86565b60006040518083038185875af1925050503d80600081146105f7576040519150601f19603f3d011682016040523d82523d6000602084013e6105fc565b606091505b5050905080610612576000151585610120015150505b7f393073ea1365f611c3d2f240c992960d2b99dc81715555d3fc40fc55ba80af9c866040516106419190611a9b565b60405180910390a1505050505050565b6000600b6000858152602001908152602001600020604051806101400160405290816000820154815260200160018201805461068c90611ee7565b80601f01602080910402602001604051908101604052809291908181526020018280546106b890611ee7565b80156107055780601f106106da57610100808354040283529160200191610705565b820191906000526020600020905b8154815290600101906020018083116106e857829003601f168201915b505050505081526020016002820160009054906101000a900473ffffffffffffffffffffffffffffffffffffffff1673ffffffffffffffffffffffffffffffffffffffff1673ffffffffffffffffffffffffffffffffffffffff168152602001600382015481526020016004820154815260200160058201548152602001600682015481526020016007820180548060200260200160405190810160405280929190818152602001828054801561081157602002820191906000526020600020905b8160009054906101000a900473ffffffffffffffffffffffffffffffffffffffff1673ffffffffffffffffffffffffffffffffffffffff16815260200190600101908083116107c7575b505050505081526020016008820180548060200260200160405190810160405280929190818152602001828054801561089f57602002820191906000526020600020905b8160009054906101000a900473ffffffffffffffffffffffffffffffffffffffff1673ffffffffffffffffffffffffffffffffffffffff1681526020019060010190808311610855575b505050505081526020016009820160009054906101000a900460ff1615151515815250509050806040015173ffffffffffffffffffffffffffffffffffffffff163373ffffffffffffffffffffffffffffffffffffffff1614610937576040517f08c379a000000000000000000000000000000000000000000000000000000000815260040161092e90611ca5565b60405180910390fd5b60005b838390508160ff1610156109b5576109a28585858460ff16818110610988577f4e487b7100000000000000000000000000000000000000000000000000000000600052603260045260246000fd5b905060200201602081019061099d91906116a0565b610c5f565b80806109ad90611f4a565b91505061093a565b5050505050565b6000600b60008381526020019081526020016000209050806005015481600401546109e79190611d62565b3414610a28576040517f08c379a0000000000000000000000000000000000000000000000000000000008152600401610a1f90611c25565b60405180910390fd5b8060030154421115610a6f576040517f08c379a0000000000000000000000000000000000000000000000000000000008152600401610a6690611bc5565b60405180910390fd5b8060060154816007018054905010610abc576040517f08c379a0000000000000000000000000000000000000000000000000000000008152600401610ab390611c05565b60405180910390fd5b60005b81600701805490508160ff161015610bbc573373ffffffffffffffffffffffffffffffffffffffff16826007018260ff1681548110610b27577f4e487b7100000000000000000000000000000000000000000000000000000000600052603260045260246000fd5b9060005260206000200160009054906101000a900473ffffffffffffffffffffffffffffffffffffffff1673ffffffffffffffffffffffffffffffffffffffff161415610ba9576040517f08c379a0000000000000000000000000000000000000000000000000000000008152600401610ba090611be5565b60405180910390fd5b8080610bb490611f4a565b915050610abf565b5080600701339080600181540180825580915050600190039060005260206000200160009091909190916101000a81548173ffffffffffffffffffffffffffffffffffffffff021916908373ffffffffffffffffffffffffffffffffffffffff1602179055507fb79f4240bbdd272d98e02a5db7f0cf156e5fc000961c517670a26eeeec63ed908233604051610c53929190611ab6565b60405180910390a15050565b6000600b600084815260200190815260200160002090508060020160009054906101000a900473ffffffffffffffffffffffffffffffffffffffff1673ffffffffffffffffffffffffffffffffffffffff163373ffffffffffffffffffffffffffffffffffffffff1614610d08576040517f08c379a0000000000000000000000000000000000000000000000000000000008152600401610cff90611ca5565b60405180910390fd5b600080600090505b82600701805490508160ff161015610e3f578373ffffffffffffffffffffffffffffffffffffffff16836007018260ff1681548110610d78577f4e487b7100000000000000000000000000000000000000000000000000000000600052603260045260246000fd5b9060005260206000200160009054906101000a900473ffffffffffffffffffffffffffffffffffffffff1673ffffffffffffffffffffffffffffffffffffffff161415610e2c57826007018160ff1681548110610dfe577f4e487b7100000000000000000000000000000000000000000000000000000000600052603260045260246000fd5b9060005260206000200160009054906101000a900473ffffffffffffffffffffffffffffffffffffffff1691505b8080610e3790611f4a565b915050610d10565b508273ffffffffffffffffffffffffffffffffffffffff168173ffffffffffffffffffffffffffffffffffffffff1614610eae576040517f08c379a0000000000000000000000000000000000000000000000000000000008152600401610ea590611c65565b60405180910390fd5b60005b82600801805490508160ff161015610f78573373ffffffffffffffffffffffffffffffffffffffff16836008018260ff1681548110610f19577f4e487b7100000000000000000000000000000000000000000000000000000000600052603260045260246000fd5b9060005260206000200160009054906101000a900473ffffffffffffffffffffffffffffffffffffffff1673ffffffffffffffffffffffffffffffffffffffff161415610f6557600080fd5b8080610f7090611f4a565b915050610eb1565b50600015158260090160009054906101000a900460ff16151514610f9b57600080fd5b81600801839080600181540180825580915050600190039060005260206000200160009091909190916101000a81548173ffffffffffffffffffffffffffffffffffffffff021916908373ffffffffffffffffffffffffffffffffffffffff16021790555060008373ffffffffffffffffffffffffffffffffffffffff16836004015460405161102a90611a86565b60006040518083038185875af1925050503d8060008114611067576040519150601f19603f3d011682016040523d82523d6000602084013e61106c565b606091505b505090507ff8d1583a733d83bdd3ef5464129d0a95a36d62b382d31c6d0467a61f4264381b85856040516110a1929190611ab6565b60405180910390a15050505050565b600b6020528060005260406000206000915090508060000154908060010180546110d990611ee7565b80601f016020809104026020016040519081016040528092919081815260200182805461110590611ee7565b80156111525780601f1061112757610100808354040283529160200191611152565b820191906000526020600020905b81548152906001019060200180831161113557829003601f168201915b5050505050908060020160009054906101000a900473ffffffffffffffffffffffffffffffffffffffff16908060030154908060040154908060050154908060060154908060090160009054906101000a900460ff16905088565b60018060000154908060010180546111c490611ee7565b80601f01602080910402602001604051908101604052809291908181526020018280546111f090611ee7565b801561123d5780601f106112125761010080835404028352916020019161123d565b820191906000526020600020905b81548152906001019060200180831161122057829003601f168201915b5050505050908060020160009054906101000a900473ffffffffffffffffffffffffffffffffffffffff16908060030154908060040154908060050154908060060154908060090160009054906101000a900460ff16905088565b60003330878787876040516020016112b596959493929190611a16565b6040516020818303038152906040528051906020012090506060806040518061014001604052808481526020018581526020013373ffffffffffffffffffffffffffffffffffffffff16815260200189815260200188815260200186815260200187815260200183815260200182815260200160001515815250600b6000858152602001908152602001600020600082015181600001556020820151816001019080519060200190611368929190611482565b5060408201518160020160006101000a81548173ffffffffffffffffffffffffffffffffffffffff021916908373ffffffffffffffffffffffffffffffffffffffff160217905550606082015181600301556080820151816004015560a0820151816005015560c0820151816006015560e08201518160070190805190602001906113f4929190611508565b50610100820151816008019080519060200190611412929190611508565b506101208201518160090160006101000a81548160ff0219169083151502179055509050507f4dc259537652a3063bd5b2c98ad1048d49ee821bdd08a972ab1fbb3abdbb4c6c83338a898b8a60405161147096959493929190611adf565b60405180910390a15050505050505050565b82805461148e90611ee7565b90600052602060002090601f0160209004810192826114b057600085556114f7565b82601f106114c957805160ff19168380011785556114f7565b828001600101855582156114f7579182015b828111156114f65782518255916020019190600101906114db565b5b5090506115049190611592565b5090565b828054828255906000526020600020908101928215611581579160200282015b828111156115805782518260006101000a81548173ffffffffffffffffffffffffffffffffffffffff021916908373ffffffffffffffffffffffffffffffffffffffff16021790555091602001919060010190611528565b5b50905061158e9190611592565b5090565b5b808211156115ab576000816000905550600101611593565b5090565b60006115c26115bd84611d0a565b611ce5565b9050828152602081018484840111156115da57600080fd5b6115e5848285611ea5565b509392505050565b6000813590506115fc816121c1565b92915050565b60008083601f84011261161457600080fd5b8235905067ffffffffffffffff81111561162d57600080fd5b60208301915083602082028301111561164557600080fd5b9250929050565b60008135905061165b816121d8565b92915050565b600082601f83011261167257600080fd5b81356116828482602086016115af565b91505092915050565b60008135905061169a816121ef565b92915050565b6000602082840312156116b257600080fd5b60006116c0848285016115ed565b91505092915050565b6000602082840312156116db57600080fd5b60006116e98482850161164c565b91505092915050565b6000806040838503121561170557600080fd5b60006117138582860161164c565b9250506020611724858286016115ed565b9150509250929050565b60008060006040848603121561174357600080fd5b60006117518682870161164c565b935050602084013567ffffffffffffffff81111561176e57600080fd5b61177a86828701611602565b92509250509250925092565b600080600080600060a0868803121561179e57600080fd5b60006117ac8882890161168b565b95505060206117bd8882890161168b565b94505060406117ce8882890161168b565b93505060606117df8882890161168b565b925050608086013567ffffffffffffffff8111156117fc57600080fd5b61180888828901611661565b9150509295509295909350565b61181e81611e46565b82525050565b61183561183082611e46565b611f74565b82525050565b61184481611e58565b82525050565b61185381611e64565b82525050565b600061186482611d3b565b61186e8185611d51565b935061187e818560208601611eb4565b6118878161202f565b840191505092915050565b600061189f601083611d51565b91506118aa8261204d565b602082019050919050565b60006118c2601183611d51565b91506118cd82612076565b602082019050919050565b60006118e5601f83611d51565b91506118f08261209f565b602082019050919050565b6000611908600a83611d51565b9150611913826120c8565b602082019050919050565b600061192b600c83611d51565b9150611936826120f1565b602082019050919050565b600061194e601283611d51565b91506119598261211a565b602082019050919050565b6000611971600083611d46565b915061197c82612143565b600082019050919050565b6000611994601383611d51565b915061199f82612146565b602082019050919050565b60006119b7600e83611d51565b91506119c28261216f565b602082019050919050565b60006119da600983611d51565b91506119e582612198565b602082019050919050565b6119f981611e8e565b82525050565b611a10611a0b82611e8e565b611f98565b82525050565b6000611a228289611824565b601482019150611a328288611824565b601482019150611a4282876119ff565b602082019150611a5282866119ff565b602082019150611a6282856119ff565b602082019150611a7282846119ff565b602082019150819050979650505050505050565b6000611a9182611964565b9150819050919050565b6000602082019050611ab0600083018461184a565b92915050565b6000604082019050611acb600083018561184a565b611ad86020830184611815565b9392505050565b600060c082019050611af4600083018961184a565b611b016020830188611815565b611b0e60408301876119f0565b611b1b60608301866119f0565b611b2860808301856119f0565b611b3560a08301846119f0565b979650505050505050565b600061010082019050611b56600083018b61184a565b8181036020830152611b68818a611859565b9050611b776040830189611815565b611b8460608301886119f0565b611b9160808301876119f0565b611b9e60a08301866119f0565b611bab60c08301856119f0565b611bb860e083018461183b565b9998505050505050505050565b60006020820190508181036000830152611bde81611892565b9050919050565b60006020820190508181036000830152611bfe816118b5565b9050919050565b60006020820190508181036000830152611c1e816118d8565b9050919050565b60006020820190508181036000830152611c3e816118fb565b9050919050565b60006020820190508181036000830152611c5e8161191e565b9050919050565b60006020820190508181036000830152611c7e81611941565b9050919050565b60006020820190508181036000830152611c9e81611987565b9050919050565b60006020820190508181036000830152611cbe816119aa565b9050919050565b60006020820190508181036000830152611cde816119cd565b9050919050565b6000611cef611d00565b9050611cfb8282611f19565b919050565b6000604051905090565b600067ffffffffffffffff821115611d2557611d24612000565b5b611d2e8261202f565b9050602081019050919050565b600081519050919050565b600081905092915050565b600082825260208201905092915050565b6000611d6d82611e8e565b9150611d7883611e8e565b9250827fffffffffffffffffffffffffffffffffffffffffffffffffffffffffffffffff03821115611dad57611dac611fa2565b5b828201905092915050565b6000611dc382611e8e565b9150611dce83611e8e565b9250817fffffffffffffffffffffffffffffffffffffffffffffffffffffffffffffffff0483118215151615611e0757611e06611fa2565b5b828202905092915050565b6000611e1d82611e8e565b9150611e2883611e8e565b925082821015611e3b57611e3a611fa2565b5b828203905092915050565b6000611e5182611e6e565b9050919050565b60008115159050919050565b6000819050919050565b600073ffffffffffffffffffffffffffffffffffffffff82169050919050565b6000819050919050565b600060ff82169050919050565b82818337600083830152505050565b60005b83811015611ed2578082015181840152602081019050611eb7565b83811115611ee1576000848401525b50505050565b60006002820490506001821680611eff57607f821691505b60208210811415611f1357611f12611fd1565b5b50919050565b611f228261202f565b810181811067ffffffffffffffff82111715611f4157611f40612000565b5b80604052505050565b6000611f5582611e98565b915060ff821415611f6957611f68611fa2565b5b600182019050919050565b6000611f7f82611f86565b9050919050565b6000611f9182612040565b9050919050565b6000819050919050565b7f4e487b7100000000000000000000000000000000000000000000000000000000600052601160045260246000fd5b7f4e487b7100000000000000000000000000000000000000000000000000000000600052602260045260246000fd5b7f4e487b7100000000000000000000000000000000000000000000000000000000600052604160045260246000fd5b6000601f19601f8301169050919050565b60008160601b9050919050565b7f414c52454144592048415050454e454400000000000000000000000000000000600082015250565b7f414c524541445920434f4e4649524d4544000000000000000000000000000000600082015250565b7f54686973206576656e7420686173207265616368656420636170616369747900600082015250565b7f4e4f5420454e4f55474800000000000000000000000000000000000000000000600082015250565b7f414c524541445920504149440000000000000000000000000000000000000000600082015250565b7f4e4f205253565020544f20434f4e4649524d0000000000000000000000000000600082015250565b50565b7f4d555354204245204556454e54204f574e455200000000000000000000000000600082015250565b7f4e4f5420415554484f52495a4544000000000000000000000000000000000000600082015250565b7f544f4f204541524c590000000000000000000000000000000000000000000000600082015250565b6121ca81611e46565b81146121d557600080fd5b50565b6121e181611e64565b81146121ec57600080fd5b50565b6121f881611e8e565b811461220357600080fd5b5056fea2646970667358221220ba709f4b079a25d2bad5e3a085946d3d65bbcb920dbb0f5fd3be2883ef7c398964736f6c63430008040033",
  "linkReferences": {},
  "deployedLinkReferences": {}
}