{
  "_format": "hh-sol-artifact-1",
  "contractName": "Web3RSVP",
  "sourceName": "contracts/Web3RSVP.sol",
  "abi": [
    {
      "anonymous": false,
      "inputs": [
        {
          "indexed": false,
          "internalType": "bytes32",
          "name": "eventID",
          "type": "bytes32"
        },
        {
          "indexed": false,
          "internalType": "address",
          "name": "attendeeAddress",
          "type": "address"
        }
      ],
      "name": "ConfirmedAttendee",
      "type": "event"
    },
    {
      "anonymous": false,
      "inputs": [
        {
          "indexed": false,
          "internalType": "bytes32",
          "name": "eventID",
          "type": "bytes32"
        }
      ],
      "name": "DepositsPaidOut",
      "type": "event"
    },
    {
      "anonymous": false,
      "inputs": [
        {
          "indexed": false,
          "internalType": "bytes32",
          "name": "eventID",
          "type": "bytes32"
        },
        {
          "indexed": false,
          "internalType": "address",
          "name": "creatorAddress",
          "type": "address"
        },
        {
          "indexed": false,
          "internalType": "uint256",
          "name": "eventTimestamp",
          "type": "uint256"
        },
        {
          "indexed": false,
          "internalType": "uint256",
          "name": "maxCapacity",
          "type": "uint256"
        },
        {
          "indexed": false,
          "internalType": "uint256",
          "name": "deposit",
          "type": "uint256"
        },
        {
          "indexed": false,
          "internalType": "string",
          "name": "eventDataCID",
          "type": "string"
        }
      ],
      "name": "NewEventCreated",
      "type": "event"
    },
    {
      "anonymous": false,
      "inputs": [
        {
          "indexed": false,
          "internalType": "bytes32",
          "name": "eventID",
          "type": "bytes32"
        },
        {
          "indexed": false,
          "internalType": "address",
          "name": "attendeeAddress",
          "type": "address"
        }
      ],
      "name": "NewRSVP",
      "type": "event"
    },
    {
      "inputs": [
        {
          "internalType": "bytes32",
          "name": "eventId",
          "type": "bytes32"
        }
      ],
      "name": "confirmAllAttendees",
      "outputs": [],
      "stateMutability": "nonpayable",
      "type": "function"
    },
    {
      "inputs": [
        {
          "internalType": "bytes32",
          "name": "eventId",
          "type": "bytes32"
        },
        {
          "internalType": "address",
          "name": "attendee",
          "type": "address"
        }
      ],
      "name": "confirmAttendee",
      "outputs": [],
      "stateMutability": "nonpayable",
      "type": "function"
    },
    {
      "inputs": [
        {
          "internalType": "uint256",
          "name": "eventTimestamp",
          "type": "uint256"
        },
        {
          "internalType": "uint256",
          "name": "deposit",
          "type": "uint256"
        },
        {
          "internalType": "uint256",
          "name": "maxCapacity",
          "type": "uint256"
        },
        {
          "internalType": "string",
          "name": "eventDataCID",
          "type": "string"
        }
      ],
      "name": "createNewEvent",
      "outputs": [],
      "stateMutability": "nonpayable",
      "type": "function"
    },
    {
      "inputs": [
        {
          "internalType": "bytes32",
          "name": "eventId",
          "type": "bytes32"
        }
      ],
      "name": "createNewRSVP",
      "outputs": [],
      "stateMutability": "payable",
      "type": "function"
    },
    {
      "inputs": [
        {
          "internalType": "bytes32",
          "name": "",
          "type": "bytes32"
        }
      ],
      "name": "idToEvent",
      "outputs": [
        {
          "internalType": "bytes32",
          "name": "eventId",
          "type": "bytes32"
        },
        {
          "internalType": "string",
          "name": "eventDataCID",
          "type": "string"
        },
        {
          "internalType": "address",
          "name": "eventOwner",
          "type": "address"
        },
        {
          "internalType": "uint256",
          "name": "eventTimestamp",
          "type": "uint256"
        },
        {
          "internalType": "uint256",
          "name": "deposit",
          "type": "uint256"
        },
        {
          "internalType": "uint256",
          "name": "maxCapacity",
          "type": "uint256"
        },
        {
          "internalType": "bool",
          "name": "paidOut",
          "type": "bool"
        }
      ],
      "stateMutability": "view",
      "type": "function"
    },
    {
      "inputs": [
        {
          "internalType": "bytes32",
          "name": "eventId",
          "type": "bytes32"
        }
      ],
      "name": "withdrawUnclaimedDeposits",
      "outputs": [],
      "stateMutability": "nonpayable",
      "type": "function"
    }
  ],
  "bytecode": "0x608060405234801561001057600080fd5b506121e2806100206000396000f3fe6080604052600436106100545760003560e01c806292098c1461005957806317f0165a146100825780636dcdf2cd1461009e57806379747571146100c7578063909ef021146100f0578063acdbe01214610133575b600080fd5b34801561006557600080fd5b50610080600480360381019061007b9190611697565b61015c565b005b61009c60048036038101906100979190611632565b610378565b005b3480156100aa57600080fd5b506100c560048036038101906100c0919061165b565b61060b565b005b3480156100d357600080fd5b506100ee60048036038101906100e99190611632565b610b7c565b005b3480156100fc57600080fd5b5061011760048036038101906101129190611632565b61102e565b60405161012a9796959493929190611ad0565b60405180910390f35b34801561013f57600080fd5b5061015a60048036038101906101559190611632565b611125565b005b600033308787876040516020016101779594939291906119ae565b60405160208183030381529060405280519060200120905060608060405180610120016040528084815260200186868080601f016020809104026020016040519081016040528093929190818152602001838380828437600081840152601f19601f8201169050808301925050505050505081526020013373ffffffffffffffffffffffffffffffffffffffff1681526020018981526020018881526020018781526020018381526020018281526020016000151581525060008085815260200190815260200160002060008201518160000155602082015181600101908051906020019061026792919061147c565b5060408201518160020160006101000a81548173ffffffffffffffffffffffffffffffffffffffff021916908373ffffffffffffffffffffffffffffffffffffffff160217905550606082015181600301556080820151816004015560a0820151816005015560c08201518160060190805190602001906102e9929190611502565b5060e0820151816007019080519060200190610306929190611502565b506101008201518160080160006101000a81548160ff0219169083151502179055509050507f2553138c3f9c9008f266dbdbe9fc64f5b71e098d06ef714a190a65a8b9fc6bf383338a898b8a8a6040516103669796959493929190611a66565b60405180910390a15050505050505050565b60008060008381526020019081526020016000209050806004015434146103d4576040517f08c379a00000000000000000000000000000000000000000000000000000000081526004016103cb90611c06565b60405180910390fd5b806003015442111561041b576040517f08c379a000000000000000000000000000000000000000000000000000000000815260040161041290611ba6565b60405180910390fd5b8060050154816006018054905010610468576040517f08c379a000000000000000000000000000000000000000000000000000000000815260040161045f90611be6565b60405180910390fd5b60005b81600601805490508160ff161015610568573373ffffffffffffffffffffffffffffffffffffffff16826006018260ff16815481106104d3577f4e487b7100000000000000000000000000000000000000000000000000000000600052603260045260246000fd5b9060005260206000200160009054906101000a900473ffffffffffffffffffffffffffffffffffffffff1673ffffffffffffffffffffffffffffffffffffffff161415610555576040517f08c379a000000000000000000000000000000000000000000000000000000000815260040161054c90611bc6565b60405180910390fd5b808061056090611ea4565b91505061046b565b5080600601339080600181540180825580915050600190039060005260206000200160009091909190916101000a81548173ffffffffffffffffffffffffffffffffffffffff021916908373ffffffffffffffffffffffffffffffffffffffff1602179055507fb79f4240bbdd272d98e02a5db7f0cf156e5fc000961c517670a26eeeec63ed9082336040516105ff929190611a3d565b60405180910390a15050565b600080600084815260200190815260200160002090508060020160009054906101000a900473ffffffffffffffffffffffffffffffffffffffff1673ffffffffffffffffffffffffffffffffffffffff163373ffffffffffffffffffffffffffffffffffffffff16146106b3576040517f08c379a00000000000000000000000000000000000000000000000000000000081526004016106aa90611c86565b60405180910390fd5b600080600090505b82600601805490508160ff1610156107ea578373ffffffffffffffffffffffffffffffffffffffff16836006018260ff1681548110610723577f4e487b7100000000000000000000000000000000000000000000000000000000600052603260045260246000fd5b9060005260206000200160009054906101000a900473ffffffffffffffffffffffffffffffffffffffff1673ffffffffffffffffffffffffffffffffffffffff1614156107d757826006018160ff16815481106107a9577f4e487b7100000000000000000000000000000000000000000000000000000000600052603260045260246000fd5b9060005260206000200160009054906101000a900473ffffffffffffffffffffffffffffffffffffffff1691505b80806107e290611ea4565b9150506106bb565b508273ffffffffffffffffffffffffffffffffffffffff168173ffffffffffffffffffffffffffffffffffffffff1614610859576040517f08c379a000000000000000000000000000000000000000000000000000000000815260040161085090611c46565b60405180910390fd5b60005b82600701805490508160ff161015610959578373ffffffffffffffffffffffffffffffffffffffff16836007018260ff16815481106108c4577f4e487b7100000000000000000000000000000000000000000000000000000000600052603260045260246000fd5b9060005260206000200160009054906101000a900473ffffffffffffffffffffffffffffffffffffffff1673ffffffffffffffffffffffffffffffffffffffff161415610946576040517f08c379a000000000000000000000000000000000000000000000000000000000815260040161093d90611b46565b60405180910390fd5b808061095190611ea4565b91505061085c565b50600015158260080160009054906101000a900460ff161515146109b2576040517f08c379a00000000000000000000000000000000000000000000000000000000081526004016109a990611b66565b60405180910390fd5b81600701839080600181540180825580915050600190039060005260206000200160009091909190916101000a81548173ffffffffffffffffffffffffffffffffffffffff021916908373ffffffffffffffffffffffffffffffffffffffff16021790555060008373ffffffffffffffffffffffffffffffffffffffff168360040154604051610a4190611a0d565b60006040518083038185875af1925050503d8060008114610a7e576040519150601f19603f3d011682016040523d82523d6000602084013e610a83565b606091505b5050905080610afc5782600701805480610ac6577f4e487b7100000000000000000000000000000000000000000000000000000000600052603160045260246000fd5b6001900381819060005260206000200160006101000a81549073ffffffffffffffffffffffffffffffffffffffff021916905590555b80610b3c576040517f08c379a0000000000000000000000000000000000000000000000000000000008152600401610b3390611b86565b60405180910390fd5b7ff8d1583a733d83bdd3ef5464129d0a95a36d62b382d31c6d0467a61f4264381b8585604051610b6d929190611a3d565b60405180910390a15050505050565b60008060008381526020019081526020016000206040518061012001604052908160008201548152602001600182018054610bb690611e72565b80601f0160208091040260200160405190810160405280929190818152602001828054610be290611e72565b8015610c2f5780601f10610c0457610100808354040283529160200191610c2f565b820191906000526020600020905b815481529060010190602001808311610c1257829003601f168201915b505050505081526020016002820160009054906101000a900473ffffffffffffffffffffffffffffffffffffffff1673ffffffffffffffffffffffffffffffffffffffff1673ffffffffffffffffffffffffffffffffffffffff16815260200160038201548152602001600482015481526020016005820154815260200160068201805480602002602001604051908101604052809291908181526020018280548015610d3157602002820191906000526020600020905b8160009054906101000a900473ffffffffffffffffffffffffffffffffffffffff1673ffffffffffffffffffffffffffffffffffffffff1681526020019060010190808311610ce7575b5050505050815260200160078201805480602002602001604051908101604052809291908181526020018280548015610dbf57602002820191906000526020600020905b8160009054906101000a900473ffffffffffffffffffffffffffffffffffffffff1673ffffffffffffffffffffffffffffffffffffffff1681526020019060010190808311610d75575b505050505081526020016008820160009054906101000a900460ff161515151581525050905080610100015115610e2b576040517f08c379a0000000000000000000000000000000000000000000000000000000008152600401610e2290611c26565b60405180910390fd5b62093a808160600151610e3e9190611ced565b421015610e80576040517f08c379a0000000000000000000000000000000000000000000000000000000008152600401610e7790611ca6565b60405180910390fd5b806040015173ffffffffffffffffffffffffffffffffffffffff163373ffffffffffffffffffffffffffffffffffffffff1614610ef2576040517f08c379a0000000000000000000000000000000000000000000000000000000008152600401610ee990611c66565b60405180910390fd5b60008160e00151518260c0015151610f0a9190611d9d565b90506000826080015182610f1e9190611d43565b905060018361010001901515908115158152505060003373ffffffffffffffffffffffffffffffffffffffff1682604051610f5890611a0d565b60006040518083038185875af1925050503d8060008114610f95576040519150601f19603f3d011682016040523d82523d6000602084013e610f9a565b606091505b5050905080610fb0576000151584610100015150505b80610ff0576040517f08c379a0000000000000000000000000000000000000000000000000000000008152600401610fe790611b86565b60405180910390fd5b7f393073ea1365f611c3d2f240c992960d2b99dc81715555d3fc40fc55ba80af9c8560405161101f9190611a22565b60405180910390a15050505050565b600060205280600052604060002060009150905080600001549080600101805461105790611e72565b80601f016020809104026020016040519081016040528092919081815260200182805461108390611e72565b80156110d05780601f106110a5576101008083540402835291602001916110d0565b820191906000526020600020905b8154815290600101906020018083116110b357829003601f168201915b5050505050908060020160009054906101000a900473ffffffffffffffffffffffffffffffffffffffff16908060030154908060040154908060050154908060080160009054906101000a900460ff16905087565b6000806000838152602001908152602001600020604051806101200160405290816000820154815260200160018201805461115f90611e72565b80601f016020809104026020016040519081016040528092919081815260200182805461118b90611e72565b80156111d85780601f106111ad576101008083540402835291602001916111d8565b820191906000526020600020905b8154815290600101906020018083116111bb57829003601f168201915b505050505081526020016002820160009054906101000a900473ffffffffffffffffffffffffffffffffffffffff1673ffffffffffffffffffffffffffffffffffffffff1673ffffffffffffffffffffffffffffffffffffffff168152602001600382015481526020016004820154815260200160058201548152602001600682018054806020026020016040519081016040528092919081815260200182805480156112da57602002820191906000526020600020905b8160009054906101000a900473ffffffffffffffffffffffffffffffffffffffff1673ffffffffffffffffffffffffffffffffffffffff1681526020019060010190808311611290575b505050505081526020016007820180548060200260200160405190810160405280929190818152602001828054801561136857602002820191906000526020600020905b8160009054906101000a900473ffffffffffffffffffffffffffffffffffffffff1673ffffffffffffffffffffffffffffffffffffffff168152602001906001019080831161131e575b505050505081526020016008820160009054906101000a900460ff1615151515815250509050806040015173ffffffffffffffffffffffffffffffffffffffff163373ffffffffffffffffffffffffffffffffffffffff1614611400576040517f08c379a00000000000000000000000000000000000000000000000000000000081526004016113f790611c86565b60405180910390fd5b60005b8160c00151518160ff16101561147757611464838360c001518360ff1681518110611457577f4e487b7100000000000000000000000000000000000000000000000000000000600052603260045260246000fd5b602002602001015161060b565b808061146f90611ea4565b915050611403565b505050565b82805461148890611e72565b90600052602060002090601f0160209004810192826114aa57600085556114f1565b82601f106114c357805160ff19168380011785556114f1565b828001600101855582156114f1579182015b828111156114f05782518255916020019190600101906114d5565b5b5090506114fe919061158c565b5090565b82805482825590600052602060002090810192821561157b579160200282015b8281111561157a5782518260006101000a81548173ffffffffffffffffffffffffffffffffffffffff021916908373ffffffffffffffffffffffffffffffffffffffff16021790555091602001919060010190611522565b5b509050611588919061158c565b5090565b5b808211156115a557600081600090555060010161158d565b5090565b6000813590506115b881612167565b92915050565b6000813590506115cd8161217e565b92915050565b60008083601f8401126115e557600080fd5b8235905067ffffffffffffffff8111156115fe57600080fd5b60208301915083600182028301111561161657600080fd5b9250929050565b60008135905061162c81612195565b92915050565b60006020828403121561164457600080fd5b6000611652848285016115be565b91505092915050565b6000806040838503121561166e57600080fd5b600061167c858286016115be565b925050602061168d858286016115a9565b9150509250929050565b6000806000806000608086880312156116af57600080fd5b60006116bd8882890161161d565b95505060206116ce8882890161161d565b94505060406116df8882890161161d565b935050606086013567ffffffffffffffff8111156116fc57600080fd5b611708888289016115d3565b92509250509295509295909350565b61172081611dd1565b82525050565b61173761173282611dd1565b611ece565b82525050565b61174681611de3565b82525050565b61175581611def565b82525050565b60006117678385611cdc565b9350611774838584611e30565b61177d83611f5a565b840190509392505050565b600061179382611cc6565b61179d8185611cdc565b93506117ad818560208601611e3f565b6117b681611f5a565b840191505092915050565b60006117ce600f83611cdc565b91506117d982611f78565b602082019050919050565b60006117f1601083611cdc565b91506117fc82611fa1565b602082019050919050565b6000611814601483611cdc565b915061181f82611fca565b602082019050919050565b6000611837601083611cdc565b915061184282611ff3565b602082019050919050565b600061185a601183611cdc565b91506118658261201c565b602082019050919050565b600061187d601f83611cdc565b915061188882612045565b602082019050919050565b60006118a0600a83611cdc565b91506118ab8261206e565b602082019050919050565b60006118c3600c83611cdc565b91506118ce82612097565b602082019050919050565b60006118e6601283611cdc565b91506118f1826120c0565b602082019050919050565b6000611909600083611cd1565b9150611914826120e9565b600082019050919050565b600061192c601383611cdc565b9150611937826120ec565b602082019050919050565b600061194f600e83611cdc565b915061195a82612115565b602082019050919050565b6000611972600983611cdc565b915061197d8261213e565b602082019050919050565b61199181611e19565b82525050565b6119a86119a382611e19565b611ef2565b82525050565b60006119ba8288611726565b6014820191506119ca8287611726565b6014820191506119da8286611997565b6020820191506119ea8285611997565b6020820191506119fa8284611997565b6020820191508190509695505050505050565b6000611a18826118fc565b9150819050919050565b6000602082019050611a37600083018461174c565b92915050565b6000604082019050611a52600083018561174c565b611a5f6020830184611717565b9392505050565b600060c082019050611a7b600083018a61174c565b611a886020830189611717565b611a956040830188611988565b611aa26060830187611988565b611aaf6080830186611988565b81810360a0830152611ac281848661175b565b905098975050505050505050565b600060e082019050611ae5600083018a61174c565b8181036020830152611af78189611788565b9050611b066040830188611717565b611b136060830187611988565b611b206080830186611988565b611b2d60a0830185611988565b611b3a60c083018461173d565b98975050505050505050565b60006020820190508181036000830152611b5f816117c1565b9050919050565b60006020820190508181036000830152611b7f816117e4565b9050919050565b60006020820190508181036000830152611b9f81611807565b9050919050565b60006020820190508181036000830152611bbf8161182a565b9050919050565b60006020820190508181036000830152611bdf8161184d565b9050919050565b60006020820190508181036000830152611bff81611870565b9050919050565b60006020820190508181036000830152611c1f81611893565b9050919050565b60006020820190508181036000830152611c3f816118b6565b9050919050565b60006020820190508181036000830152611c5f816118d9565b9050919050565b60006020820190508181036000830152611c7f8161191f565b9050919050565b60006020820190508181036000830152611c9f81611942565b9050919050565b60006020820190508181036000830152611cbf81611965565b9050919050565b600081519050919050565b600081905092915050565b600082825260208201905092915050565b6000611cf882611e19565b9150611d0383611e19565b9250827fffffffffffffffffffffffffffffffffffffffffffffffffffffffffffffffff03821115611d3857611d37611efc565b5b828201905092915050565b6000611d4e82611e19565b9150611d5983611e19565b9250817fffffffffffffffffffffffffffffffffffffffffffffffffffffffffffffffff0483118215151615611d9257611d91611efc565b5b828202905092915050565b6000611da882611e19565b9150611db383611e19565b925082821015611dc657611dc5611efc565b5b828203905092915050565b6000611ddc82611df9565b9050919050565b60008115159050919050565b6000819050919050565b600073ffffffffffffffffffffffffffffffffffffffff82169050919050565b6000819050919050565b600060ff82169050919050565b82818337600083830152505050565b60005b83811015611e5d578082015181840152602081019050611e42565b83811115611e6c576000848401525b50505050565b60006002820490506001821680611e8a57607f821691505b60208210811415611e9e57611e9d611f2b565b5b50919050565b6000611eaf82611e23565b915060ff821415611ec357611ec2611efc565b5b600182019050919050565b6000611ed982611ee0565b9050919050565b6000611eeb82611f6b565b9050919050565b6000819050919050565b7f4e487b7100000000000000000000000000000000000000000000000000000000600052601160045260246000fd5b7f4e487b7100000000000000000000000000000000000000000000000000000000600052602260045260246000fd5b6000601f19601f8301169050919050565b60008160601b9050919050565b7f414c524541445920434c41494d45440000000000000000000000000000000000600082015250565b7f414c52454144592050414944204f555400000000000000000000000000000000600082015250565b7f4661696c656420746f2073656e64204574686572000000000000000000000000600082015250565b7f414c52454144592048415050454e454400000000000000000000000000000000600082015250565b7f414c524541445920434f4e4649524d4544000000000000000000000000000000600082015250565b7f54686973206576656e7420686173207265616368656420636170616369747900600082015250565b7f4e4f5420454e4f55474800000000000000000000000000000000000000000000600082015250565b7f414c524541445920504149440000000000000000000000000000000000000000600082015250565b7f4e4f205253565020544f20434f4e4649524d0000000000000000000000000000600082015250565b50565b7f4d555354204245204556454e54204f574e455200000000000000000000000000600082015250565b7f4e4f5420415554484f52495a4544000000000000000000000000000000000000600082015250565b7f544f4f204541524c590000000000000000000000000000000000000000000000600082015250565b61217081611dd1565b811461217b57600080fd5b50565b61218781611def565b811461219257600080fd5b50565b61219e81611e19565b81146121a957600080fd5b5056fea2646970667358221220415a53c2eda0d85ed01ef5a9e510b0a517affbc56bb96d04516d446ebf7e757664736f6c63430008040033",
  "linkReferences": {},
  "deployedLinkReferences": {}
}