{
  "_format": "hh-sol-artifact-1",
  "contractName": "Web3RSVP",
  "sourceName": "contracts/Web3RSVP.sol",
  "abi": [
    {
      "anonymous": false,
      "inputs": [
        {
          "indexed": false,
          "internalType": "bytes32",
          "name": "eventID",
          "type": "bytes32"
        },
        {
          "indexed": false,
          "internalType": "address",
          "name": "attendeeAddress",
          "type": "address"
        }
      ],
      "name": "ConfirmedAttendee",
      "type": "event"
    },
    {
      "anonymous": false,
      "inputs": [
        {
          "indexed": false,
          "internalType": "bytes32",
          "name": "eventID",
          "type": "bytes32"
        }
      ],
      "name": "DepositsPaidOut",
      "type": "event"
    },
    {
      "anonymous": false,
      "inputs": [
        {
          "indexed": false,
          "internalType": "bytes32",
          "name": "eventID",
          "type": "bytes32"
        },
        {
          "indexed": false,
          "internalType": "address",
          "name": "creatorAddress",
          "type": "address"
        },
        {
          "indexed": false,
          "internalType": "uint256",
          "name": "eventTimestamp",
          "type": "uint256"
        },
        {
          "indexed": false,
          "internalType": "uint256",
          "name": "maxCapacity",
          "type": "uint256"
        },
        {
          "indexed": false,
          "internalType": "uint256",
          "name": "deposit",
          "type": "uint256"
        },
        {
          "indexed": false,
          "internalType": "string",
          "name": "eventDataCID",
          "type": "string"
        }
      ],
      "name": "NewEventCreated",
      "type": "event"
    },
    {
      "anonymous": false,
      "inputs": [
        {
          "indexed": false,
          "internalType": "bytes32",
          "name": "eventID",
          "type": "bytes32"
        },
        {
          "indexed": false,
          "internalType": "address",
          "name": "attendeeAddress",
          "type": "address"
        }
      ],
      "name": "NewRSVP",
      "type": "event"
    },
    {
      "inputs": [
        {
          "internalType": "bytes32",
          "name": "eventId",
          "type": "bytes32"
        }
      ],
      "name": "confirmAllAttendees",
      "outputs": [],
      "stateMutability": "nonpayable",
      "type": "function"
    },
    {
      "inputs": [
        {
          "internalType": "bytes32",
          "name": "eventId",
          "type": "bytes32"
        },
        {
          "internalType": "address",
          "name": "attendee",
          "type": "address"
        }
      ],
      "name": "confirmAttendee",
      "outputs": [],
      "stateMutability": "nonpayable",
      "type": "function"
    },
    {
      "inputs": [
        {
          "internalType": "uint256",
          "name": "eventTimestamp",
          "type": "uint256"
        },
        {
          "internalType": "uint256",
          "name": "deposit",
          "type": "uint256"
        },
        {
          "internalType": "uint256",
          "name": "maxCapacity",
          "type": "uint256"
        },
        {
          "internalType": "string",
          "name": "eventDataCID",
          "type": "string"
        }
      ],
      "name": "createNewEvent",
      "outputs": [
        {
          "internalType": "bytes32",
          "name": "id",
          "type": "bytes32"
        }
      ],
      "stateMutability": "nonpayable",
      "type": "function"
    },
    {
      "inputs": [
        {
          "internalType": "bytes32",
          "name": "eventId",
          "type": "bytes32"
        }
      ],
      "name": "createNewRSVP",
      "outputs": [],
      "stateMutability": "payable",
      "type": "function"
    },
    {
      "inputs": [
        {
          "internalType": "bytes32",
          "name": "",
          "type": "bytes32"
        }
      ],
      "name": "idToEvent",
      "outputs": [
        {
          "internalType": "bytes32",
          "name": "eventId",
          "type": "bytes32"
        },
        {
          "internalType": "string",
          "name": "eventDataCID",
          "type": "string"
        },
        {
          "internalType": "address",
          "name": "eventOwner",
          "type": "address"
        },
        {
          "internalType": "uint256",
          "name": "eventTimestamp",
          "type": "uint256"
        },
        {
          "internalType": "uint256",
          "name": "deposit",
          "type": "uint256"
        },
        {
          "internalType": "uint256",
          "name": "maxCapacity",
          "type": "uint256"
        },
        {
          "internalType": "bool",
          "name": "paidOut",
          "type": "bool"
        }
      ],
      "stateMutability": "view",
      "type": "function"
    },
    {
      "inputs": [
        {
          "internalType": "bytes32",
          "name": "eventId",
          "type": "bytes32"
        }
      ],
      "name": "withdrawUnclaimedDeposits",
      "outputs": [],
      "stateMutability": "nonpayable",
      "type": "function"
    }
  ],
  "bytecode": "0x608060405234801561001057600080fd5b506121fc806100206000396000f3fe6080604052600436106100545760003560e01c806292098c1461005957806317f0165a146100965780636dcdf2cd146100b257806379747571146100db578063909ef02114610104578063acdbe01214610147575b600080fd5b34801561006557600080fd5b50610080600480360381019061007b91906116b1565b610170565b60405161008d9190611a3c565b60405180910390f35b6100b060048036038101906100ab919061164c565b610392565b005b3480156100be57600080fd5b506100d960048036038101906100d49190611675565b610625565b005b3480156100e757600080fd5b5061010260048036038101906100fd919061164c565b610b96565b005b34801561011057600080fd5b5061012b6004803603810190610126919061164c565b611048565b60405161013e9796959493929190611aea565b60405180910390f35b34801561015357600080fd5b5061016e6004803603810190610169919061164c565b61113f565b005b600080333088888860405160200161018c9594939291906119c8565b60405160208183030381529060405280519060200120905060608060405180610120016040528084815260200187878080601f016020809104026020016040519081016040528093929190818152602001838380828437600081840152601f19601f8201169050808301925050505050505081526020013373ffffffffffffffffffffffffffffffffffffffff1681526020018a81526020018981526020018881526020018381526020018281526020016000151581525060008085815260200190815260200160002060008201518160000155602082015181600101908051906020019061027c929190611496565b5060408201518160020160006101000a81548173ffffffffffffffffffffffffffffffffffffffff021916908373ffffffffffffffffffffffffffffffffffffffff160217905550606082015181600301556080820151816004015560a0820151816005015560c08201518160060190805190602001906102fe92919061151c565b5060e082015181600701908051906020019061031b92919061151c565b506101008201518160080160006101000a81548160ff0219169083151502179055509050507f2553138c3f9c9008f266dbdbe9fc64f5b71e098d06ef714a190a65a8b9fc6bf383338b8a8c8b8b60405161037b9796959493929190611a80565b60405180910390a182935050505095945050505050565b60008060008381526020019081526020016000209050806004015434146103ee576040517f08c379a00000000000000000000000000000000000000000000000000000000081526004016103e590611c20565b60405180910390fd5b8060030154421115610435576040517f08c379a000000000000000000000000000000000000000000000000000000000815260040161042c90611bc0565b60405180910390fd5b8060050154816006018054905010610482576040517f08c379a000000000000000000000000000000000000000000000000000000000815260040161047990611c00565b60405180910390fd5b60005b81600601805490508160ff161015610582573373ffffffffffffffffffffffffffffffffffffffff16826006018260ff16815481106104ed577f4e487b7100000000000000000000000000000000000000000000000000000000600052603260045260246000fd5b9060005260206000200160009054906101000a900473ffffffffffffffffffffffffffffffffffffffff1673ffffffffffffffffffffffffffffffffffffffff16141561056f576040517f08c379a000000000000000000000000000000000000000000000000000000000815260040161056690611be0565b60405180910390fd5b808061057a90611ebe565b915050610485565b5080600601339080600181540180825580915050600190039060005260206000200160009091909190916101000a81548173ffffffffffffffffffffffffffffffffffffffff021916908373ffffffffffffffffffffffffffffffffffffffff1602179055507fb79f4240bbdd272d98e02a5db7f0cf156e5fc000961c517670a26eeeec63ed908233604051610619929190611a57565b60405180910390a15050565b600080600084815260200190815260200160002090508060020160009054906101000a900473ffffffffffffffffffffffffffffffffffffffff1673ffffffffffffffffffffffffffffffffffffffff163373ffffffffffffffffffffffffffffffffffffffff16146106cd576040517f08c379a00000000000000000000000000000000000000000000000000000000081526004016106c490611ca0565b60405180910390fd5b600080600090505b82600601805490508160ff161015610804578373ffffffffffffffffffffffffffffffffffffffff16836006018260ff168154811061073d577f4e487b7100000000000000000000000000000000000000000000000000000000600052603260045260246000fd5b9060005260206000200160009054906101000a900473ffffffffffffffffffffffffffffffffffffffff1673ffffffffffffffffffffffffffffffffffffffff1614156107f157826006018160ff16815481106107c3577f4e487b7100000000000000000000000000000000000000000000000000000000600052603260045260246000fd5b9060005260206000200160009054906101000a900473ffffffffffffffffffffffffffffffffffffffff1691505b80806107fc90611ebe565b9150506106d5565b508273ffffffffffffffffffffffffffffffffffffffff168173ffffffffffffffffffffffffffffffffffffffff1614610873576040517f08c379a000000000000000000000000000000000000000000000000000000000815260040161086a90611c60565b60405180910390fd5b60005b82600701805490508160ff161015610973578373ffffffffffffffffffffffffffffffffffffffff16836007018260ff16815481106108de577f4e487b7100000000000000000000000000000000000000000000000000000000600052603260045260246000fd5b9060005260206000200160009054906101000a900473ffffffffffffffffffffffffffffffffffffffff1673ffffffffffffffffffffffffffffffffffffffff161415610960576040517f08c379a000000000000000000000000000000000000000000000000000000000815260040161095790611b60565b60405180910390fd5b808061096b90611ebe565b915050610876565b50600015158260080160009054906101000a900460ff161515146109cc576040517f08c379a00000000000000000000000000000000000000000000000000000000081526004016109c390611b80565b60405180910390fd5b81600701839080600181540180825580915050600190039060005260206000200160009091909190916101000a81548173ffffffffffffffffffffffffffffffffffffffff021916908373ffffffffffffffffffffffffffffffffffffffff16021790555060008373ffffffffffffffffffffffffffffffffffffffff168360040154604051610a5b90611a27565b60006040518083038185875af1925050503d8060008114610a98576040519150601f19603f3d011682016040523d82523d6000602084013e610a9d565b606091505b5050905080610b165782600701805480610ae0577f4e487b7100000000000000000000000000000000000000000000000000000000600052603160045260246000fd5b6001900381819060005260206000200160006101000a81549073ffffffffffffffffffffffffffffffffffffffff021916905590555b80610b56576040517f08c379a0000000000000000000000000000000000000000000000000000000008152600401610b4d90611ba0565b60405180910390fd5b7ff8d1583a733d83bdd3ef5464129d0a95a36d62b382d31c6d0467a61f4264381b8533604051610b87929190611a57565b60405180910390a15050505050565b60008060008381526020019081526020016000206040518061012001604052908160008201548152602001600182018054610bd090611e8c565b80601f0160208091040260200160405190810160405280929190818152602001828054610bfc90611e8c565b8015610c495780601f10610c1e57610100808354040283529160200191610c49565b820191906000526020600020905b815481529060010190602001808311610c2c57829003601f168201915b505050505081526020016002820160009054906101000a900473ffffffffffffffffffffffffffffffffffffffff1673ffffffffffffffffffffffffffffffffffffffff1673ffffffffffffffffffffffffffffffffffffffff16815260200160038201548152602001600482015481526020016005820154815260200160068201805480602002602001604051908101604052809291908181526020018280548015610d4b57602002820191906000526020600020905b8160009054906101000a900473ffffffffffffffffffffffffffffffffffffffff1673ffffffffffffffffffffffffffffffffffffffff1681526020019060010190808311610d01575b5050505050815260200160078201805480602002602001604051908101604052809291908181526020018280548015610dd957602002820191906000526020600020905b8160009054906101000a900473ffffffffffffffffffffffffffffffffffffffff1673ffffffffffffffffffffffffffffffffffffffff1681526020019060010190808311610d8f575b505050505081526020016008820160009054906101000a900460ff161515151581525050905080610100015115610e45576040517f08c379a0000000000000000000000000000000000000000000000000000000008152600401610e3c90611c40565b60405180910390fd5b62093a808160600151610e589190611d07565b421015610e9a576040517f08c379a0000000000000000000000000000000000000000000000000000000008152600401610e9190611cc0565b60405180910390fd5b806040015173ffffffffffffffffffffffffffffffffffffffff163373ffffffffffffffffffffffffffffffffffffffff1614610f0c576040517f08c379a0000000000000000000000000000000000000000000000000000000008152600401610f0390611c80565b60405180910390fd5b60008160e00151518260c0015151610f249190611db7565b90506000826080015182610f389190611d5d565b905060018361010001901515908115158152505060003373ffffffffffffffffffffffffffffffffffffffff1682604051610f7290611a27565b60006040518083038185875af1925050503d8060008114610faf576040519150601f19603f3d011682016040523d82523d6000602084013e610fb4565b606091505b5050905080610fca576000151584610100015150505b8061100a576040517f08c379a000000000000000000000000000000000000000000000000000000000815260040161100190611ba0565b60405180910390fd5b7f393073ea1365f611c3d2f240c992960d2b99dc81715555d3fc40fc55ba80af9c856040516110399190611a3c565b60405180910390a15050505050565b600060205280600052604060002060009150905080600001549080600101805461107190611e8c565b80601f016020809104026020016040519081016040528092919081815260200182805461109d90611e8c565b80156110ea5780601f106110bf576101008083540402835291602001916110ea565b820191906000526020600020905b8154815290600101906020018083116110cd57829003601f168201915b5050505050908060020160009054906101000a900473ffffffffffffffffffffffffffffffffffffffff16908060030154908060040154908060050154908060080160009054906101000a900460ff16905087565b6000806000838152602001908152602001600020604051806101200160405290816000820154815260200160018201805461117990611e8c565b80601f01602080910402602001604051908101604052809291908181526020018280546111a590611e8c565b80156111f25780601f106111c7576101008083540402835291602001916111f2565b820191906000526020600020905b8154815290600101906020018083116111d557829003601f168201915b505050505081526020016002820160009054906101000a900473ffffffffffffffffffffffffffffffffffffffff1673ffffffffffffffffffffffffffffffffffffffff1673ffffffffffffffffffffffffffffffffffffffff168152602001600382015481526020016004820154815260200160058201548152602001600682018054806020026020016040519081016040528092919081815260200182805480156112f457602002820191906000526020600020905b8160009054906101000a900473ffffffffffffffffffffffffffffffffffffffff1673ffffffffffffffffffffffffffffffffffffffff16815260200190600101908083116112aa575b505050505081526020016007820180548060200260200160405190810160405280929190818152602001828054801561138257602002820191906000526020600020905b8160009054906101000a900473ffffffffffffffffffffffffffffffffffffffff1673ffffffffffffffffffffffffffffffffffffffff1681526020019060010190808311611338575b505050505081526020016008820160009054906101000a900460ff1615151515815250509050806040015173ffffffffffffffffffffffffffffffffffffffff163373ffffffffffffffffffffffffffffffffffffffff161461141a576040517f08c379a000000000000000000000000000000000000000000000000000000000815260040161141190611ca0565b60405180910390fd5b60005b8160c00151518160ff1610156114915761147e838360c001518360ff1681518110611471577f4e487b7100000000000000000000000000000000000000000000000000000000600052603260045260246000fd5b6020026020010151610625565b808061148990611ebe565b91505061141d565b505050565b8280546114a290611e8c565b90600052602060002090601f0160209004810192826114c4576000855561150b565b82601f106114dd57805160ff191683800117855561150b565b8280016001018555821561150b579182015b8281111561150a5782518255916020019190600101906114ef565b5b50905061151891906115a6565b5090565b828054828255906000526020600020908101928215611595579160200282015b828111156115945782518260006101000a81548173ffffffffffffffffffffffffffffffffffffffff021916908373ffffffffffffffffffffffffffffffffffffffff1602179055509160200191906001019061153c565b5b5090506115a291906115a6565b5090565b5b808211156115bf5760008160009055506001016115a7565b5090565b6000813590506115d281612181565b92915050565b6000813590506115e781612198565b92915050565b60008083601f8401126115ff57600080fd5b8235905067ffffffffffffffff81111561161857600080fd5b60208301915083600182028301111561163057600080fd5b9250929050565b600081359050611646816121af565b92915050565b60006020828403121561165e57600080fd5b600061166c848285016115d8565b91505092915050565b6000806040838503121561168857600080fd5b6000611696858286016115d8565b92505060206116a7858286016115c3565b9150509250929050565b6000806000806000608086880312156116c957600080fd5b60006116d788828901611637565b95505060206116e888828901611637565b94505060406116f988828901611637565b935050606086013567ffffffffffffffff81111561171657600080fd5b611722888289016115ed565b92509250509295509295909350565b61173a81611deb565b82525050565b61175161174c82611deb565b611ee8565b82525050565b61176081611dfd565b82525050565b61176f81611e09565b82525050565b60006117818385611cf6565b935061178e838584611e4a565b61179783611f74565b840190509392505050565b60006117ad82611ce0565b6117b78185611cf6565b93506117c7818560208601611e59565b6117d081611f74565b840191505092915050565b60006117e8600f83611cf6565b91506117f382611f92565b602082019050919050565b600061180b601083611cf6565b915061181682611fbb565b602082019050919050565b600061182e601483611cf6565b915061183982611fe4565b602082019050919050565b6000611851601083611cf6565b915061185c8261200d565b602082019050919050565b6000611874601183611cf6565b915061187f82612036565b602082019050919050565b6000611897601f83611cf6565b91506118a28261205f565b602082019050919050565b60006118ba600a83611cf6565b91506118c582612088565b602082019050919050565b60006118dd600c83611cf6565b91506118e8826120b1565b602082019050919050565b6000611900601283611cf6565b915061190b826120da565b602082019050919050565b6000611923600083611ceb565b915061192e82612103565b600082019050919050565b6000611946601383611cf6565b915061195182612106565b602082019050919050565b6000611969600e83611cf6565b91506119748261212f565b602082019050919050565b600061198c600983611cf6565b915061199782612158565b602082019050919050565b6119ab81611e33565b82525050565b6119c26119bd82611e33565b611f0c565b82525050565b60006119d48288611740565b6014820191506119e48287611740565b6014820191506119f482866119b1565b602082019150611a0482856119b1565b602082019150611a1482846119b1565b6020820191508190509695505050505050565b6000611a3282611916565b9150819050919050565b6000602082019050611a516000830184611766565b92915050565b6000604082019050611a6c6000830185611766565b611a796020830184611731565b9392505050565b600060c082019050611a95600083018a611766565b611aa26020830189611731565b611aaf60408301886119a2565b611abc60608301876119a2565b611ac960808301866119a2565b81810360a0830152611adc818486611775565b905098975050505050505050565b600060e082019050611aff600083018a611766565b8181036020830152611b1181896117a2565b9050611b206040830188611731565b611b2d60608301876119a2565b611b3a60808301866119a2565b611b4760a08301856119a2565b611b5460c0830184611757565b98975050505050505050565b60006020820190508181036000830152611b79816117db565b9050919050565b60006020820190508181036000830152611b99816117fe565b9050919050565b60006020820190508181036000830152611bb981611821565b9050919050565b60006020820190508181036000830152611bd981611844565b9050919050565b60006020820190508181036000830152611bf981611867565b9050919050565b60006020820190508181036000830152611c198161188a565b9050919050565b60006020820190508181036000830152611c39816118ad565b9050919050565b60006020820190508181036000830152611c59816118d0565b9050919050565b60006020820190508181036000830152611c79816118f3565b9050919050565b60006020820190508181036000830152611c9981611939565b9050919050565b60006020820190508181036000830152611cb98161195c565b9050919050565b60006020820190508181036000830152611cd98161197f565b9050919050565b600081519050919050565b600081905092915050565b600082825260208201905092915050565b6000611d1282611e33565b9150611d1d83611e33565b9250827fffffffffffffffffffffffffffffffffffffffffffffffffffffffffffffffff03821115611d5257611d51611f16565b5b828201905092915050565b6000611d6882611e33565b9150611d7383611e33565b9250817fffffffffffffffffffffffffffffffffffffffffffffffffffffffffffffffff0483118215151615611dac57611dab611f16565b5b828202905092915050565b6000611dc282611e33565b9150611dcd83611e33565b925082821015611de057611ddf611f16565b5b828203905092915050565b6000611df682611e13565b9050919050565b60008115159050919050565b6000819050919050565b600073ffffffffffffffffffffffffffffffffffffffff82169050919050565b6000819050919050565b600060ff82169050919050565b82818337600083830152505050565b60005b83811015611e77578082015181840152602081019050611e5c565b83811115611e86576000848401525b50505050565b60006002820490506001821680611ea457607f821691505b60208210811415611eb857611eb7611f45565b5b50919050565b6000611ec982611e3d565b915060ff821415611edd57611edc611f16565b5b600182019050919050565b6000611ef382611efa565b9050919050565b6000611f0582611f85565b9050919050565b6000819050919050565b7f4e487b7100000000000000000000000000000000000000000000000000000000600052601160045260246000fd5b7f4e487b7100000000000000000000000000000000000000000000000000000000600052602260045260246000fd5b6000601f19601f8301169050919050565b60008160601b9050919050565b7f414c524541445920434c41494d45440000000000000000000000000000000000600082015250565b7f414c52454144592050414944204f555400000000000000000000000000000000600082015250565b7f4661696c656420746f2073656e64204574686572000000000000000000000000600082015250565b7f414c52454144592048415050454e454400000000000000000000000000000000600082015250565b7f414c524541445920434f4e4649524d4544000000000000000000000000000000600082015250565b7f54686973206576656e7420686173207265616368656420636170616369747900600082015250565b7f4e4f5420454e4f55474800000000000000000000000000000000000000000000600082015250565b7f414c524541445920504149440000000000000000000000000000000000000000600082015250565b7f4e4f205253565020544f20434f4e4649524d0000000000000000000000000000600082015250565b50565b7f4d555354204245204556454e54204f574e455200000000000000000000000000600082015250565b7f4e4f5420415554484f52495a4544000000000000000000000000000000000000600082015250565b7f544f4f204541524c590000000000000000000000000000000000000000000000600082015250565b61218a81611deb565b811461219557600080fd5b50565b6121a181611e09565b81146121ac57600080fd5b50565b6121b881611e33565b81146121c357600080fd5b5056fea2646970667358221220f71aab023c065c453cc9c56c6151fda6a895ae3b1f37998e8ade5f4f0583bd6d64736f6c63430008040033",
  "linkReferences": {},
  "deployedLinkReferences": {}
}